:020000040000FA
:100000000C9435000C945D000C945D000C945D0024
:100010000C941B020C945D000C945D000C945D002C
:100020000C945D000C945D000C945D000C945D00DC
:100030000C945D000C945D000C945D000C945D00CC
:100040000C94D1010C945D000C949F010C947901E7
:100050000C945D000C945D000C945D000C945D00AC
:100060000C945D000C945D00D20311241FBECFEFF1
:10007000D8E0DEBFCDBF11E0A0E0B1E0EEE2FAE0F3
:1000800002C005900D92A033B107D9F723E0A0E399
:10009000B1E001C01D92AA31B207E1F710E0C5E35B
:1000A000D0E004C02197FE010E940F05C433D107A0
:1000B000C9F70E941E040C9415050C940000AF9221
:1000C000BF92CF92DF92EF92FF920F931F93CF9345
:1000D000DF936C017B018B01040F151FEB015E01A7
:1000E000AE18BF08C017D10759F06991D601ED913C
:1000F000FC910190F081E02DC6010995892B79F7DB
:10010000C501DF91CF911F910F91FF90EF90DF908C
:10011000CF90BF90AF900895FC01538D448D252F53
:1001200030E0842F90E0821B930B541710F0CF9691
:10013000089501970895FC01918D828D981761F0C3
:10014000A28DAE0FBF2FB11D5D968C91928D9F5FDA
:100150009F73928F90E008958FEF9FEF0895FC01B9
:10016000918D828D981731F0828DE80FF11D858D6C
:1001700090E008958FEF9FEF0895FC01918D228DFF
:10018000892F90E0805C9F4F821B91098F73992784
:10019000089588E792E00E94BD0021E0892B09F4D0
:1001A00020E0822F089580E090E0892B29F00E94C2
:1001B000C90081110C9400000895FC01A48DA80FC2
:1001C000B92FB11DA35ABF4F2C91848D90E0019699
:1001D0008F739927848FA689B7892C93A089B189B9
:1001E0008C91837080648C93938D848D981306C05A
:1001F0000288F389E02D80818F7D80830895EF92BE
:10020000FF920F931F93CF93DF93EC0181E0888FD0
:100210009B8D8C8D98131AC0E889F989808185FFA0
:1002200015C09FB7F894EE89FF896083E889F98942
:1002300080818370806480839FBF81E090E0DF9144
:10024000CF911F910F91FF90EF900895F62E0B8D97
:1002500010E00F5F1F4F0F731127E02E8C8D8E1152
:100260000CC00FB607FCFACFE889F989808185FFB9
:10027000F5CFCE010E94DD00F1CFEB8DEC0FFD2F0D
:10028000F11DE35AFF4FF0829FB7F8940B8FEA8974
:10029000FB8980818062CFCFCF93DF93EC01888D83
:1002A0008823B9F0AA89BB89E889F9898C9185FDF1
:1002B00003C0808186FD0DC00FB607FCF7CF8C917F
:1002C00085FFF2CF808185FFEDCFCE010E94DD005A
:1002D000E9CFDF91CF910895FC0101900020E9F76B
:1002E0003197AF01481B590BBC0188E792E00C9491
:1002F0005F001F920F920FB60F9211242F933F931E
:100300004F935F936F937F938F939F93AF93BF931D
:10031000EF93FF9388E792E00E94DD00FF91EF9159
:10032000BF91AF919F918F917F916F915F914F910D
:100330003F912F910F900FBE0F901F9018951F9215
:100340000F920FB60F9211242F938F939F93EF93D9
:10035000FF93E0918802F09189028081E0918E0202
:10036000F0918F0282FD1BC09081809191028F5F7E
:100370008F7320919202821741F0E0919102F0E098
:10038000E858FD4F958F80939102FF91EF919F91D7
:100390008F912F910F900FBE0F901F901895808115
:1003A000F4CF1F920F920FB60F9211242F933F9309
:1003B0008F939F93AF93BF938091EA019091EB014C
:1003C000A091EC01B091ED013091E90123E0230F00
:1003D0002D3758F50196A11DB11D2093E901809399
:1003E000EA019093EB01A093EC01B093ED018091B1
:1003F000E5019091E601A091E701B091E801019635
:10040000A11DB11D8093E5019093E601A093E70142
:10041000B093E801BF91AF919F918F913F912F9140
:100420000F900FBE0F901F90189526E8230F02968D
:10043000A11DB11DD2CF1F920F920FB60F921124A2
:100440004F925F926F927F92AF92BF92CF92DF9264
:10045000EF92FF921F932F933F934F935F936F936E
:100460007F938F939F93AF93BF93EF93FF93CF931C
:10047000DF93CDB7DEB7A197DEBFCDBF80917A0005
:10048000806480937A0080917A00319B2DC08091A6
:100490000A0190910B01019690930B0180930A0140
:1004A000A1960FB6F894DEBF0FBECDBFDF91CF91FE
:1004B000FF91EF91BF91AF919F918F917F916F913C
:1004C0005F914F913F912F911F91FF90EF90DF909F
:1004D000CF90BF90AF907F906F905F904F900F90B4
:1004E0000FBE0F901F9018958091080190910901FF
:1004F0009093070180930601809178009091790094
:100500009093090180930801E0910A01F0910B0199
:100510008091080190910901EE0FFF1FED52FE4FEF
:10052000918380838091EF01882309F4F4C0809146
:100530000601909107012091080130910901821B69
:10054000930B181619060CF0C9C080910601909102
:1005500007012091080130910901821B930BC39779
:100560000CF4C5C08091D0019091D101926090931C
:10057000D1018093D0018091D0019091D1019695C5
:1005800087959093D1018093D0018091D20191E021
:1005900089278093D2018091EF018111EAC087E021
:1005A00090E020910A0130910B012817390709F0DA
:1005B00077CF8091EF0111E0882339F01091EE019F
:1005C0008091D20118271092D201B12CA12C4AE0BF
:1005D000442E512C612C712CF501EE0FFF1FED52B2
:1005E000FE4FC080D1800D2C000CEE08FF08F7FEF6
:1005F000C3C06DE288E792E00E94FF002227332704
:10060000A9012C193D094E095F0919A2CE01819655
:100610007C01CA01B901A30192010E94ED04605D51
:10062000F70162937F01211531054105510589F7D5
:10063000E114F10419F0C7010E946C018DE291E010
:100640000E946C01FFEFAF1ABF0A89E0A816B1043F
:1006500019F68CE291E00E946C018AE291E00E941E
:100660006C018091D0019091D1019093CF01809342
:10067000CE011092D1011092D001112361F180912D
:1006800074029091750201968F7399279093CD0112
:100690008093CC012091CC013091CD0180917602E4
:1006A0009091770228173907B1F0E0917402F09128
:1006B00075028091CE019091CF01EE0FFF1FEE5099
:1006C000FE4F918380838091CC019091CD019093D6
:1006D0007502809374028FEF9FEFDECE8091080148
:1006E00090910901209106013091070136CF809148
:1006F000D0019091D10191709093D1018093D0015C
:100700008091D0019091D101969587959093D101D8
:100710008093D00140CF80910601909107012091F4
:10072000080130910901821B930B1816190694F4E5
:1007300080910601909107012091080130910901F3
:10074000821B930BC3977CF08091D0019091D101D3
:100750009160D2CF8091080190910901209106010A
:1007600030910701EDCF8091D0019091D10199276F
:10077000C3CF88E090E015CFA701960119A2CE0162
:1007800081967C01CA01B901A30192010E94ED0486
:10079000605DF70162937F01211531054105510527
:1007A00089F746CFE8E7F2E01382128288EE93E001
:1007B000A0E0B0E084839583A683B78380E191E0D5
:1007C0009183808385EC90E09587848784EC90E02A
:1007D0009787868780EC90E0918B808B81EC90E00E
:1007E000938B828B82EC90E0958B848B86EC90E0EF
:1007F000978B868B118E128E138E148EA8E6B0E026
:10080000B0931903A09318031092170310921603C4
:1008100010921503249A80E480937C0010927B0050
:10082000EAE7F0E086E880838081806480838081CD
:10083000399882E08C9380936C000895789484B505
:10084000826084BD84B5816084BD85B5826085BDCC
:1008500085B5816085BD80916E00816080936E005A
:10086000109281008091810082608093810080914C
:1008700081008160809381008091800081608093FD
:1008800080008091B10084608093B1008091B000BD
:1008900081608093B00080917A00846080937A00B8
:1008A00080917A00826080937A0080917A008160E2
:1008B00080937A0080917A00806880937A00109209
:1008C000C100E0918802F091890282E08083E0918A
:1008D0008402F09185021082E0918602F0918702F5
:1008E00080E1808310929002E0918C02F0918D0261
:1008F00086E08083E0918A02F0918B0280818061A2
:100900008083E0918A02F0918B02808188608083ED
:10091000E0918A02F0918B02808180688083E0916F
:100920008A02F0918B0280818F7D80832298239AA6
:100930002B9A80EA91E09093F1018093F00181E09D
:100940008093EF018093EE018EE191E00E946C01B3
:100950008AE291E00E946C01C0E0D0E02091720236
:1009600030917302809174029091750240917602E9
:1009700050917702841B950B8F739927892B01F176
:1009800040917602509177028091740290917502A5
:1009900048175907A9F0E0917602F0917702EE0F1F
:1009A000FF1FEE50FE4F20813181809176029091A1
:1009B000770201968F73992790937702809376023E
:1009C000209781F230937302209372020E94C90033
:1009D000882321F20E940000C1CFA1E21A2EAA1B97
:1009E000BB1BFD010DC0AA1FBB1FEE1FFF1FA217DF
:1009F000B307E407F50720F0A21BB30BE40BF50BDC
:100A0000661F771F881F991F1A9469F76095709564
:100A1000809590959B01AC01BD01CF010895EE0F2B
:100A2000FF1F0590F491E02D0994F894FFCFFFFF8C
:100A30000002000200020002FFFF00000000FF00B1
:100A40005F008C004C01BD009B00AF00496E6963E4
:0E0A500069616E646F3A20000D0A002D0000EF
:107E0000112484B714BE81FFF0D085E080938100F7
:107E100082E08093C00088E18093C10086E0809377
:107E2000C20080E18093C4008EE0C9D0259A86E02C
:107E300020E33CEF91E0309385002093840096BBD3
:107E4000B09BFECF1D9AA8958150A9F7CC24DD24C4
:107E500088248394B5E0AB2EA1E19A2EF3E0BF2EE7
:107E6000A2D0813461F49FD0082FAFD0023811F036
:107E7000013811F484E001C083E08DD089C08234E0
:107E800011F484E103C0853419F485E0A6D080C0E4
:107E9000853579F488D0E82EFF2485D0082F10E0AE
:107EA000102F00270E291F29000F111F8ED06801E7
:107EB0006FC0863521F484E090D080E0DECF843638
:107EC00009F040C070D06FD0082F6DD080E0C81688
:107ED00080E7D80618F4F601B7BEE895C0E0D1E017
:107EE00062D089930C17E1F7F0E0CF16F0E7DF06D8
:107EF00018F0F601B7BEE89568D007B600FCFDCFD4
:107F0000A601A0E0B1E02C9130E011968C91119780
:107F100090E0982F8827822B932B1296FA010C0160
:107F200087BEE89511244E5F5F4FF1E0A038BF0790
:107F300051F7F601A7BEE89507B600FCFDCF97BE46
:107F4000E89526C08437B1F42ED02DD0F82E2BD052
:107F50003CD0F601EF2C8F010F5F1F4F84911BD097
:107F6000EA94F801C1F70894C11CD11CFA94CF0C13
:107F7000D11C0EC0853739F428D08EE10CD085E9AC
:107F80000AD08FE07ACF813511F488E018D01DD067
:107F900080E101D065CF982F8091C00085FFFCCF94
:107FA0009093C60008958091C00087FFFCCF809118
:107FB000C00084FD01C0A8958091C6000895E0E648
:107FC000F0E098E1908380830895EDDF803219F02E
:107FD00088E0F5DFFFCF84E1DECF1F93182FE3DFCA
:107FE0001150E9F7F2DF1F91089580E0E8DFEE27F6
:047FF000FF270994CA
:027FFE00040479
:00000001FF
