:100000000C9463000C948B000C948B000C948B006C
:100010000C948B000C948B000C948B000C948B0034
:100020000C948B000C948B000C948B000C948B0024
:100030000C948B000C948B000C948B000C948B0014
:100040000C94C6060C948B000C9494060C946E06CB
:100050000C948B000C948B000C948B000C948B00F4
:100060000C9410070C948B00000000002400270063
:100070002A0000000000250028002B0000000000DE
:1000800023002600290004040404040404040202DA
:100090000202020203030303030301020408102007
:1000A0004080010204081020010204081020000012
:1000B0000008000201000003040700000000000027
:1000C00000002F08860911241FBECFEFD8E0DEBF45
:1000D000CDBF25E0A2E6B1E001C01D92AC36B2076B
:1000E000E1F711E0A0E0B1E0E6E9F7E102C0059038
:1000F0000D92A236B107D9F710E0C2E6D0E004C0F5
:100100002197FE010E94C609C136D107C9F70E9496
:1001100002090C94BE0B0C94000096E0899FD0015C
:100120001124AA51BB4F90967C936E935F9791E0F8
:1001300091969C939197E0915305F091540590917D
:100140005205992339F0309751F0811108C0809100
:1001500002050994309719F05C968C91FACF0895B6
:10016000CF92DF92EF92FF920F931F9396E0899FB9
:10017000F0011124EA51FB4F11A2278D30A121304B
:10018000310551F178F02230310509F451C02330A6
:10019000310509F452C01F910F91FF90EF90DF904D
:1001A000CF9008956623B9F361E070E00E948D005E
:1001B0002FB7F8948091210290912202A0912302FE
:1001C000B09124022FBF80933E0590933F05A093EA
:1001D0004005B0934105DFCF9FB7F894C09021024E
:1001E000D0902202E0902302F09024029FBF009161
:1001F0003E0510913F052091400530914105C01A00
:10020000D10AE20AF30A009150051091510530E03D
:1002100020E00C151D052E053F0550F462E070E04E
:100220001F910F91FF90EF90DF90CF900C948D0075
:100230006111B1CF63E070E0F3CF70E060E0F0CF28
:1002400008950895AF92BF92CF92DF92EF92FF92FE
:100250000F931F93CF93DF936C017B018B01040FEE
:10026000151FEB015E01AE18BF08C017D10759F08A
:100270006991D601ED91FC910190F081E02DC601CC
:100280000995892B79F7C501DF91CF911F910F91C6
:10029000FF90EF90DF90CF90BF90AF900895FC015A
:1002A000538D448D252F30E0842F90E0821B930BDB
:1002B000541710F0CF96089501970895FC01918D81
:1002C000828D981761F0A28DAE0FBF2FB11D5D9684
:1002D0008C91928D9F5F9F73928F90E008958FEF26
:1002E0009FEF0895FC01918D828D981731F0828DDA
:1002F000E80FF11D858D90E008958FEF9FEF089531
:10030000FC01918D228D892F90E0805C9F4F821B94
:1003100091098F739927089585E292E00E948001E8
:1003200021E0892B09F420E0822F089580E090E0FD
:10033000892B29F00E948C0181110C9400000895F2
:10034000FC01A48DA80FB92FB11DA35ABF4F2C914A
:10035000848D90E001968F739927848FA689B78941
:100360002C93A089B1898C91837080648C93938D38
:10037000848D981306C00288F389E02D80818F7DDB
:1003800080830895EF92FF920F931F93CF93DF9393
:10039000EC0181E0888F9B8D8C8D98131AC0E889C1
:1003A000F989808185FF15C09FB7F894EE89FF8990
:1003B0006083E889F98980818370806480839FBF2E
:1003C00081E090E0DF91CF911F910F91FF90EF902E
:1003D0000895F62E0B8D10E00F5F1F4F0F7311273E
:1003E000E02E8C8D8E110CC00FB607FCFACFE88979
:1003F000F989808185FFF5CFCE010E94A001F1CF60
:10040000EB8DEC0FFD2FF11DE35AFF4FF0829FB7EC
:10041000F8940B8FEA89FB8980818062CFCFCF93DC
:10042000DF93EC01888D8823B9F0AA89BB89E8891C
:10043000F9898C9185FD03C0808186FD0DC00FB6C2
:1004400007FCF7CF8C9185FFF2CF808185FFEDCF40
:10045000CE010E94A001E9CFDF91CF9108958330B2
:1004600081F028F4813099F08230A9F00895873026
:10047000A9F08830C9F08430B1F4809180008F7D7C
:1004800003C0809180008F7780938000089584B5A9
:100490008F7784BD089584B58F7DFBCF8091B000A8
:1004A0008F778093B00008958091B0008F7DF9CF51
:1004B000CF93DF93282F30E0F901E255FF4F84916D
:1004C000F901E656FF4FD491F901EA57FF4FC49165
:1004D000CC23A1F081110E942F02EC2FF0E0EE0F4F
:1004E000FF1FE458FF4FA591B491EC91ED2381E0FB
:1004F00090E009F480E0DF91CF91089580E090E0F2
:10050000FACF862F0C9458021F93CF93DF93282F96
:1005100030E0F901E255FF4F8491F901E656FF4FB3
:10052000D491F901EA57FF4FC491CC23A9F0162FBB
:1005300081110E942F02EC2FF0E0EE0FFF1FEE580A
:10054000FF4FA591B4918FB7F894EC91111108C0A9
:10055000D095DE23DC938FBFDF91CF911F9108955B
:10056000DE2BF8CF862F642F0C948402CF93DF9379
:1005700090E0FC01E656FF4F24918A579F4FFC0103
:1005800084918823C9F090E0880F991FFC01E859F5
:10059000FF4FA591B491FC01EE58FF4FC591D49146
:1005A00061110DC09FB7F8948C91209582238C9394
:1005B0008881282328839FBFDF91CF9108956230DF
:1005C00051F49FB7F8943C91822F809583238C93AC
:1005D000E8812E2BEFCF8FB7F894EC912E2B2C9334
:1005E0008FBFEACF862F642F0C94B6023FB7F894E2
:1005F0008091150290911602A0911702B0911802F5
:1006000026B5A89B05C02F3F19F00196A11DB11D6D
:100610003FBFBA2FA92F982F8827BC01CD01620FA9
:10062000711D811D911D42E0660F771F881F991F64
:100630004A95D1F708958F929F92AF92BF92CF9231
:10064000DF92EF92FF924B015C010E94F6026B0178
:100650007C010E94F6026C197D098E099F09683E93
:10066000734081059105A8F321E0821A9108A10841
:10067000B10888EEC80E83E0D81EE11CF11C81147D
:100680009104A104B10429F7FF90EF90DF90CF907F
:10069000BF90AF909F908F90089508952091A301EF
:1006A000260F3327331F21323105ECF42091EC0162
:1006B000FC0190E080E0243069F082E00895A09190
:1006C000A3012191AC014D575E4FA40FB52FB11D71
:1006D0002C930196861798F38091A301680F60937D
:1006E000A30180E0089581E008951092EC0181E07B
:1006F0008093EB011092C60161E082E10E948402C6
:1007000061E083E10E948402E9EBF0E080818E7F6A
:10071000808380818D7F808388E48093B80085E426
:100720008093BC000895CF93DF9391E09093820172
:100730008823B9F0C091B800D091BA008091BC0074
:100740008A7B8093BC0060E082E10E94840260E0CA
:1007500083E10E9484020E947503D093BA00C09383
:10076000B800DF91CF9108950895E0912002809123
:100770001F02E81730F4F0E0EE59FE4F808190E060
:1007800008958FEF9FEF08959091200280911F02AE
:100790002FEF3FEF981748F4E92FF0E0EE59FE4FA6
:1007A000208130E09F5F90932002C90108958091DD
:1007B0001F0290912002891B990B0895CF92DF921E
:1007C000EF92FF920F931F93CF93DF937C01CB01A6
:1007D0008A012091F201222389F0EB016B01C40E02
:1007E000D51ECC15DD0569F06991D701ED91FC911D
:1007F0000190F081E02DC7010995F3CF642F0E948D
:100800004E03C801DF91CF911F910F91FF90EF90A0
:10081000DF90CF900895CF93DF931F92CDB7DEB7CF
:1008200069832091F2012223F9F020911D022032E8
:1008300058F021E030E0FC013383228390E080E037
:100840000F90DF91CF91089580911E02E82FF0E084
:10085000ED50FE4F998190838F5F80931E028093AD
:100860001D0281E090E0ECCF61E0CE0101960E9494
:100870004E03F7CFCF92DF92EF92FF920F931F9329
:10088000CF93DF93FC01C48121E02093F201C09358
:10089000130210921E0210921D028485682B82ECB6
:1008A00092E00E940B04D0911D02D13208F092C058
:1008B0000E94F6026B017C018091EC01811165C000
:1008C00082E08093EC0181E08093EB018FEF8093D5
:1008D000EA011092E901D093E801A3EFB1E0E8EC5E
:1008E000F1E080E0D81385C01092C7018091C70164
:1008F000CC0FC82BC093C7018091C601813009F08D
:100900007CC01092C6010E94F6026B017C018091AE
:10091000C7018093BB008091EE019091EF01A091FF
:10092000F001B091F101892B8A2B8B2B99F00E9459
:10093000F6020091EE011091EF012091F00130914B
:10094000F1016C197D098E099F0906171707280701
:100950003907E0F18091BC0083FDD9CF85EC80930D
:10096000BC000E94F6026B017C018091EC01823098
:1009700009F445C08091EA018F3F61F18091EA015D
:10098000803241F18091EA0125C08091EE01909181
:10099000EF01A091F001B091F101892B8A2B8B2BF3
:1009A00009F48ACF0E94F6020091EE011091EF0146
:1009B0002091F0013091F1016C197D098E099F0998
:1009C000061717072807390708F076CF8091ED0141
:1009D0000E94930310921E0210921D021092F201C7
:1009E000DF91CF911F910F91FF90EF90DF90CF900B
:1009F00008959D9191938F5F75CF85EEB0CF8091D3
:100A0000EE019091EF01A091F001B091F101892BDD
:100A10008A2B8B2B09F4A9CF0E94F6020091EE01DC
:100A20001091EF012091F0013091F1016C197D09D5
:100A30008E099F09061717072807390708F095CF71
:100A4000C5CF90E080E008950F931F93CF938C0162
:100A5000C62F0E943A046C2F6460C8010E943A04B9
:100A60006C2F6B7FC8010E943A0483EC90E00197E1
:100A7000F1F7CF911F910F9108950F931F93CF938B
:100A8000DF938C01D62FC42F607F642B0E94240536
:100A900080E1D89FB00111246C2BC801DF91CF9168
:100AA0001F910F910C942405CF93DF93CDB7DEB740
:100AB00028970FB6F894DEBF0FBECDBF98E0EEE1E9
:100AC000F1E0DE01119601900D929A95E1F7909177
:100AD0005D05961708F46FEF262F30E0220F331FC5
:100AE00041E050E04C0F5D1F240F351FF90160817C
:100AF000680F606840E085E595E028960FB6F894A9
:100B0000DEBF0FBECDBFDF91CF910C943D0540E01D
:100B100061E085E595E00E943D058BE39FE101974B
:100B2000F1F780915E05882321F060E080E00C946D
:100B30005405089541E00E943D0581E090E008954C
:100B4000FC0101900020E9F73197AF01481B590BD8
:100B5000BC0185E595E00C942201CF93DF93EC0175
:100B60008091620590916305009759F0209164058A
:100B7000309165052C173D0720F081E0DF91CF9182
:100B80000895BE016F5F7F4F0E94F10A009789F0C0
:100B90009093630580936205D0936505C0936405C7
:100BA0002091660530916705232B39F7FC011082EF
:100BB000E4CF80E0E3CF0F931F93CF93DF9300D078
:100BC000CDB7DEB789831A8200916605109167055B
:100BD0000F5F1F4FC8010E94AD058823A1F020912F
:100BE0006205309163058091660590916705BE01AD
:100BF0006F5F7F4F820F931F0E94B70B10936705A3
:100C00000093660581E00F900F90DF91CF911F91C7
:100C10000F910895CF93DF93EC010E94AD052091D1
:100C2000620530916305811117C02115310519F056
:100C3000C9010E94680A1092630510926205109221
:100C4000670510926605109265051092640582E6AC
:100C500095E0DF91CF910895D0936705C093660525
:100C600060E671E0C9010E94B70BF1CF85ED80937A
:100C7000BC008091EE019091EF01A091F001B09144
:100C8000F1010796A11DB11D23E0B695A795979593
:100C900087952A95D1F72091BC0024FD03C01092BE
:100CA000EC0108954091EE015091EF016091F00147
:100CB0007091F101452B462B472B69F30097A10555
:100CC000B10541F025E32A95F1F700000197A1094C
:100CD000B109E1CF8091ED010C9493031F920F9223
:100CE0000FB60F9211242F933F934F935F936F93FF
:100CF0007F938F939F93AF93BF93EF93FF9385E27F
:100D000092E00E94A001FF91EF91BF91AF919F915E
:100D10008F917F916F915F914F913F912F910F90A4
:100D20000FBE0F901F9018951F920F920FB60F9243
:100D300011242F938F939F93EF93FF93E0913502AC
:100D4000F09136028081E0913B02F0913C0282FDFD
:100D50001BC0908180913E028F5F8F7320913F0274
:100D6000821741F0E0913E02F0E0EB5DFD4F958F80
:100D700080933E02FF91EF919F918F912F910F9061
:100D80000FBE0F901F9018958081F4CF1F920F9285
:100D90000FB60F9211242F933F938F939F93AF938E
:100DA000BF938091210290912202A0912302B091E1
:100DB00024023091140223E0230F2D3758F50196B9
:100DC000A11DB11D20931402809321029093220251
:100DD000A0932302B09324028091150290911602F1
:100DE000A0911702B09118020196A11DB11D809328
:100DF000150290931602A0931702B0931802BF91A8
:100E0000AF919F918F913F912F910F900FBE0F90B7
:100E10001F90189526E8230F0296A11DB11DD2CF71
:100E20001F920F920FB60F9211242F933F934F935F
:100E30005F936F937F938F939F93AF93BF93EF9342
:100E4000FF938091B900887F803609F44AC0F0F59D
:100E5000883209F4A7C018F5803109F49BC0B8F4B2
:100E6000882309F4F9C0883009F494C0FF91EF9108
:100E7000BF91AF919F918F917F916F915F914F91B2
:100E80003F912F910F900FBE0F901F9018958831B2
:100E900009F488C0803251F78093EA0114C080348D
:100EA00009F49DC040F48033B9F38833F9F6809398
:100EB000EA0185ECB0C0803509F485C0883509F4B5
:100EC00096C0883499F60E943606D0CF883909F446
:100ED0008CC038F5883729F050F4883611F0803707
:100EE00029F683E08093EC011092C50157C0883841
:100EF00009F47BC0803919F0803809F0B7CF8091B0
:100F0000C501803208F071C0E091C50181E08E0F0B
:100F10008093C5018091BB00F0E0EB55FE4F8083CC
:100F20003DC0803B39F0E0F4803A09F479C0883A5A
:100F300009F09CCF84E08093EC011092A401109200
:100F4000A301E0911B02F0911C0209958091A3017D
:100F500081110FC081E08093A3011092830109C029
:100F6000803C09F4A6CF883C09F4A3CF883B09F064
:100F70007DCFE091A40181E08E0F8093A401F0E089
:100F8000ED57FE4F80818093BB009091A40180912A
:100F9000A30129C08091C7018093BB0085EC809399
:100FA000BC0064CF9091E9018091E801981758F551
:100FB000E091E90181E08E0F8093E901F0E0E853D0
:100FC000FE4F8081E9CFE091E90181E08E0F8093AF
:100FD000E9018091BB00F0E0E853FE4F80839091DF
:100FE000E9018091E8019817C8F285E8D8CFE0912F
:100FF000E90181E08E0F8093E9018091BB00F0E070
:10100000E853FE4F80838091EB0181115CCF81E03A
:101010008093C60184EA8093BC001092EC0126CF35
:1010200085EC8093BC001092EC018091C501803268
:1010300030F4E091C501F0E0EB55FE4F1082609175
:10104000C50170E0E0911902F0911A0285EA91E081
:1010500009951092C5010ACF1092EA0134CF10927F
:1010600028021092270288EE93E0A0E0B0E080937F
:10107000290290932A02A0932B02B0932C022AE219
:1010800031E0309326022093250225EC30E03093A6
:1010900032022093310224EC30E03093340220936A
:1010A000330220EC30E0309336022093350221ECFD
:1010B00030E0309338022093370222EC30E0309356
:1010C0003A022093390226EC30E030933C02209320
:1010D0003B0210923E0210923F0210924002109288
:1010E00041021092C5021092C4028093C6029093EE
:1010F000C702A093C802B093C9028CE391E0909319
:10110000C3028093C202109263051092620510928E
:10111000650510926405109267051092660590E0CF
:1011200080E00E940A06109258051092570588E543
:1011300091E0909356058093550510925E0587E2E5
:101140008093590580E180935F0582E0809360057C
:10115000109261051092E8041092EC041092EB04D6
:101160001092ED048EE491E09093E7048093E604FE
:10117000E2E0F5E01082148213821582369685E053
:10118000EE33F807B9F784E091E090934905809336
:10119000480580E091E090934B0580934A0584E0F8
:1011A00080934C0580934D0588E091E0909347052E
:1011B000809346058AE090E090934F0580934E051A
:1011C00084EF91E09093510580935005109254055F
:1011D0001092530510924205109243051092440557
:1011E00010924505109252051092CF021092CE0235
:1011F0001092D3041092D2041092D1021092D00215
:10120000569A0895789484B5826084BD84B58160CF
:1012100084BD85B5826085BD85B5816085BD8091C1
:101220006E00816080936E00109281008091810039
:101230008260809381008091810081608093810031
:10124000809180008160809380008091B1008460F3
:101250008093B1008091B00081608093B000809154
:101260007A00846080937A0080917A008260809313
:101270007A0080917A00816080937A0080917A0070
:10128000806880937A001092C100E0913502F0915D
:10129000360282E08083E0913102F09132021082C6
:1012A000E0913302F091340280E1808310923D029C
:1012B000E0913902F0913A0286E08083E0913702B2
:1012C000F0913802808180618083E0913702F09153
:1012D0003802808188608083E0913702F091380283
:1012E000808180688083E0913702F09138028081AC
:1012F0008F7D808388E690E09093CF028093CE022A
:1013000081E08093D1028093D002FFCF809162056B
:1013100090916305009711F00C94680A08952F923C
:101320003F924F925F926F927F928F929F92AF9275
:10133000BF92CF92DF92EF92FF920F931F93CF93C2
:10134000DF93CDB7DEB7CA1BDB0B0FB6F894DEBF59
:101350000FBECDBF09942A88398848885F846E847F
:101360007D848C849B84AA84B984C884DF80EE80C9
:10137000FD800C811B81AA81B981CE0FD11D0FB6D2
:10138000F894DEBF0FBECDBFED010895EE0FFF1F35
:101390000590F491E02D09940F931F93CF93DF9361
:1013A0008230910510F482E090E0E0916A05F091BE
:1013B0006B0530E020E0B0E0A0E0309799F4211513
:1013C000310509F44AC0281B390B24303105D8F502
:1013D0008A819B816115710589F1FB019383828369
:1013E000FE0111C0408151810281138148175907C4
:1013F000E0F04817590799F4109761F012960C9392
:10140000129713961C933296CF01DF91CF911F91C3
:101410000F91089500936A0510936B05F4CF211581
:10142000310551F04217530738F0A901DB019A0149
:10143000BD01DF01F801C1CFEF01F9CF90936B053A
:1014400080936A05CDCFFE01E20FF31F8193919344
:101450002250310939832883D7CF209168053091F4
:101460006905232B41F420911A0130911B0130931F
:101470006905209368052091180130911901211503
:10148000310541F42DB73EB740911C0150911D012B
:10149000241B350BE0916805F0916905E217F3070D
:1014A000A0F42E1B3F0B2817390778F0AC014E5FD4
:1014B0005F4F2417350748F04E0F5F1F50936905A3
:1014C00040936805819391939FCFF0E0E0E09CCF3B
:1014D000CF93DF930097E9F0FC01329713821282D9
:1014E000A0916A05B0916B05ED0130E020E0109706
:1014F000A1F420813181820F931F209168053091E2
:1015000069052817390709F061C0F0936905E09370
:101510006805DF91CF910895EA01CE17DF07E8F55E
:101520004A815B819E0141155105B1F7E901FB83B9
:10153000EA8349915991C40FD51FEC17FD0761F457
:10154000808191810296840F951FE9019983888398
:10155000828193819B838A83F0E0E0E012968D91F3
:101560009C9113970097B9F52D913C911197CD015E
:101570000296820F931F2091680530916905281704
:10158000390739F6309751F510926B0510926A05BC
:10159000B0936905A0936805BCCFD383C283408113
:1015A0005181840F951FC817D90761F44E5F5F4FB3
:1015B00088819981480F591F518340838A819B817B
:1015C000938382832115310509F0B0CFF0936B0529
:1015D000E0936A059ECFFD01DC01C0CF1382128229
:1015E000D7CFB0E0A0E0E7EFFAE00C9491098C01CE
:1015F000009751F4CB010E94CC098C01C801CDB7F2
:10160000DEB7E0E10C94AD09FC01E60FF71F9C0189
:1016100022503109E217F30708F49DC0D901CD919A
:10162000DC911197C617D70798F0C530D10530F374
:10163000CE0104978617970708F3C61BD70B22978E
:10164000C193D1936D937C93CF010E94680AD6CF4A
:101650005B01AC1ABD0A4C018C0E9D1EA0916A055F
:10166000B0916B05512C412CF12CE12C109731F5E8
:1016700080916805909169058815990509F05CC00D
:101680004616570608F058C080911801909119012C
:10169000009741F48DB79EB740911C0150911D01F8
:1016A000841B950BE817F90708F055C0F0936905FE
:1016B000E0936805F90171836083A0CF8D919C91BF
:1016C000119712966C90129713967C901397A81509
:1016D000B90559F56C0142E0C40ED11CCA14DB04F3
:1016E00020F1AC014A195B09DA011296159780F0D6
:1016F0006282738251834083D9016D937C93E1149C
:10170000F10471F0D7011396FC93EE93129776CF04
:1017100022968C0F9D1FF90191838083F301EFCFF7
:10172000F0936B05E0936A0569CF4816590608F4F3
:101730002C017D01D3019ACFCB010E94CC097C0101
:10174000009749F0AE01B8010E94AE0BC8010E949B
:10175000680A870153CF10E000E050CFFB01DC01A5
:1017600002C001900D9241505040D8F70895FB01FE
:10177000DC0101900D920020E1F7089510E0C2E62F
:10178000D0E004C0FE010E94C6092196C336D107ED
:06179000C9F7F894FFCF39
:10179600050403020908070631323341343536425F
:1017A600373839432A30234400006C058000000096
:1017B60040001400540000000000C20122014F0145
:1017C6000F0280015E017201000000000B04DE03BF
:1017D6002105B403D703C403B50300000000F202D9
:1017E600B2028102000000009A05220121054D0384
:0217F6000000F1
:00000001FF
