:020000040000FA
:100000000C9463000C948B000C948B000C948B006C
:100010000C942F080C948B000C948B000C948B0088
:100020000C948B000C948B000C948B000C948B0024
:100030000C948B000C948B000C948B000C948B0014
:100040000C94C6060C948B000C9494060C946E06CB
:100050000C948B000C948B000C948B000C948B00F4
:100060000C9410070C948B00000000002400270063
:100070002A0000000000250028002B0000000000DE
:1000800023002600290004040404040404040202DA
:100090000202020203030303030301020408102007
:1000A0004080010204081020010204081020000012
:1000B0000008000201000003040700000000000027
:1000C00000004709FF0D11241FBECFEFD8E0DEBFAF
:1000D000CDBF24E0ACE8B1E001C01D92A33BB20764
:1000E000E1F711E0A0E0B1E0E8E8F0E202C005903D
:1000F0000D92AC38B107D9F710E0C2E6D0E004C0E9
:100100002197FE010E943F0EC136D107C9F70E9418
:100110002E0A0C9437100C94000096E0899FD001B1
:100120001124A55EBB4F90967C936E935F9791E0F0
:1001300091969C939197E0918804F0918904909115
:100140008704992339F0309751F0811108C08091CC
:1001500037040994309719F05C968C91FACF089582
:10016000CF92DF92EF92FF920F931F9396E0899FB9
:10017000F0011124E55EFB4F11A2278D30A1213043
:10018000310551F178F02230310509F451C02330A6
:10019000310509F452C01F910F91FF90EF90DF904D
:1001A000CF9008956623B9F361E070E00E948D005E
:1001B0002FB7F8948091690390916A03A0916B0323
:1001C000B0916C032FBF8093730490937404A09339
:1001D0007504B0937604DFCF9FB7F894C09069039D
:1001E000D0906A03E0906B03F0906C039FBF009186
:1001F0007304109174042091750430917604C01A30
:10020000D10AE20AF30A009185041091860430E0D5
:1002100020E00C151D052E053F0550F462E070E04E
:100220001F910F91FF90EF90DF90CF900C948D0075
:100230006111B1CF63E070E0F3CF70E060E0F0CF28
:1002400008950895AF92BF92CF92DF92EF92FF92FE
:100250000F931F93CF93DF936C017B018B01040FEE
:10026000151FEB015E01AE18BF08C017D10759F08A
:100270006991D601ED91FC910190F081E02DC601CC
:100280000995892B79F7C501DF91CF911F910F91C6
:10029000FF90EF90DF90CF90BF90AF900895FC015A
:1002A000538D448D252F30E0842F90E0821B930BDB
:1002B000541710F0CF96089501970895FC01918D81
:1002C000828D981761F0A28DAE0FBF2FB11D5D9684
:1002D0008C91928D9F5F9F73928F90E008958FEF26
:1002E0009FEF0895FC01918D828D981731F0828DDA
:1002F000E80FF11D858D90E008958FEF9FEF089531
:10030000FC01918D228D892F90E0805C9F4F821B94
:1003100091098F73992708958DE693E00E948001DB
:1003200021E0892B09F420E0822F089580E090E0FD
:10033000892B29F00E948C0181110C9400000895F2
:10034000FC01A48DA80FB92FB11DA35ABF4F2C914A
:10035000848D90E001968F739927848FA689B78941
:100360002C93A089B1898C91837080648C93938D38
:10037000848D981306C00288F389E02D80818F7DDB
:1003800080830895EF92FF920F931F93CF93DF9393
:10039000EC0181E0888F9B8D8C8D98131AC0E889C1
:1003A000F989808185FF15C09FB7F894EE89FF8990
:1003B0006083E889F98980818370806480839FBF2E
:1003C00081E090E0DF91CF911F910F91FF90EF902E
:1003D0000895F62E0B8D10E00F5F1F4F0F7311273E
:1003E000E02E8C8D8E110CC00FB607FCFACFE88979
:1003F000F989808185FFF5CFCE010E94A001F1CF60
:10040000EB8DEC0FFD2FF11DE35AFF4FF0829FB7EC
:10041000F8940B8FEA89FB8980818062CFCFCF93DC
:10042000DF93EC01888D8823B9F0AA89BB89E8891C
:10043000F9898C9185FD03C0808186FD0DC00FB6C2
:1004400007FCF7CF8C9185FFF2CF808185FFEDCF40
:10045000CE010E94A001E9CFDF91CF9108958330B2
:1004600081F028F4813099F08230A9F00895873026
:10047000A9F08830C9F08430B1F4809180008F7D7C
:1004800003C0809180008F7780938000089584B5A9
:100490008F7784BD089584B58F7DFBCF8091B000A8
:1004A0008F778093B00008958091B0008F7DF9CF51
:1004B000CF93DF93282F30E0F901E255FF4F84916D
:1004C000F901E656FF4FD491F901EA57FF4FC49165
:1004D000CC23A1F081110E942F02EC2FF0E0EE0F4F
:1004E000FF1FE458FF4FA591B491EC91ED2381E0FB
:1004F00090E009F480E0DF91CF91089580E090E0F2
:10050000FACF862F0C9458021F93CF93DF93282F96
:1005100030E0F901E255FF4F8491F901E656FF4FB3
:10052000D491F901EA57FF4FC491CC23A9F0162FBB
:1005300081110E942F02EC2FF0E0EE0FFF1FEE580A
:10054000FF4FA591B4918FB7F894EC91111108C0A9
:10055000D095DE23DC938FBFDF91CF911F9108955B
:10056000DE2BF8CF862F642F0C948402CF93DF9379
:1005700090E0FC01E656FF4F24918A579F4FFC0103
:1005800084918823C9F090E0880F991FFC01E859F5
:10059000FF4FA591B491FC01EE58FF4FC591D49146
:1005A00061110DC09FB7F8948C91209582238C9394
:1005B0008881282328839FBFDF91CF9108956230DF
:1005C00051F49FB7F8943C91822F809583238C93AC
:1005D000E8812E2BEFCF8FB7F894EC912E2B2C9334
:1005E0008FBFEACF862F642F0C94B6023FB7F894E2
:1005F0008091540390915503A0915603B0915703F5
:1006000026B5A89B05C02F3F19F00196A11DB11D6D
:100610003FBFBA2FA92F982F8827BC01CD01620FA9
:10062000711D811D911D42E0660F771F881F991F64
:100630004A95D1F708958F929F92AF92BF92CF9231
:10064000DF92EF92FF924B015C010E94F6026B0178
:100650007C010E94F6026C197D098E099F09683E93
:10066000734081059105A8F321E0821A9108A10841
:10067000B10888EEC80E83E0D81EE11CF11C81147D
:100680009104A104B10429F7FF90EF90DF90CF907F
:10069000BF90AF909F908F90089508952091E202AF
:1006A000260F3327331F21323105ECF420912B0321
:1006B000FC0190E080E0243069F082E00895A09190
:1006C000E2022191AC014E535D4FA40FB52FB11D35
:1006D0002C930196861798F38091E202680F60933D
:1006E000E20280E0089581E0089510922B0381E0FA
:1006F00080932A031092050361E082E10E94840244
:1007000061E083E10E948402E9EBF0E080818E7F6A
:10071000808380818D7F808388E48093B80085E426
:100720008093BC000895CF93DF9391E09093C10232
:100730008823B9F0C091B800D091BA008091BC0074
:100740008A7B8093BC0060E082E10E94840260E0CA
:1007500083E10E9484020E947503D093BA00C09383
:10076000B800DF91CF9108950895E0915F038091E3
:100770005E03E81730F4F0E0EF55FD4F808190E024
:1007800008958FEF9FEF089590915F0380915E032E
:100790002FEF3FEF981748F4E92FF0E0EF55FD4FAA
:1007A000208130E09F5F90935F03C901089580919D
:1007B0005E0390915F03891B990B0895CF92DF929E
:1007C000EF92FF920F931F93CF93DF937C01CB01A6
:1007D0008A0120913103222389F0EB016B01C40EC1
:1007E000D51ECC15DD0569F06991D701ED91FC911D
:1007F0000190F081E02DC7010995F3CF642F0E948D
:100800004E03C801DF91CF911F910F91FF90EF90A0
:10081000DF90CF900895CF93DF931F92CDB7DEB7CF
:100820006983209131032223F9F020915C03203267
:1008300058F021E030E0FC013383228390E080E037
:100840000F90DF91CF91089580915D03E82FF0E044
:10085000EE5CFC4F998190838F5F80935D03809362
:100860005C0381E090E0ECCF61E0CE0101960E9454
:100870004E03F7CFCF92DF92EF92FF920F931F9329
:10088000CF93DF93FC01C48121E020933103C09317
:10089000520310925D0310925C038485682B8AE0FA
:1008A00094E00E940B04D0915C03D13208F092C016
:1008B0000E94F6026B017C0180912B03811165C0BF
:1008C00082E080932B0381E080932A038FEF809353
:1008D000290310922803D0932703A2E3B3E0E7E0B3
:1008E000F3E080E0D81385C01092060380910603E0
:1008F000CC0FC82BC093060380910503813009F00B
:100900007CC0109205030E94F6026B017C0180916D
:1009100006038093BB0080912D0390912E03A0913C
:100920002F03B0913003892B8A2B8B2B99F00E94D7
:10093000F60200912D0310912E0320912F03309188
:1009400030036C197D098E099F09061717072807C0
:100950003907E0F18091BC0083FDD9CF85EC80930D
:10096000BC000E94F6026B017C0180912B03823057
:1009700009F445C0809129038F3F61F180912903DB
:10098000803241F18091290325C080912D039091FF
:100990002E03A0912F03B0913003892B8A2B8B2B30
:1009A00009F48ACF0E94F60200912D0310912E03C4
:1009B00020912F03309130036C197D098E099F0916
:1009C000061717072807390708F076CF80912C0300
:1009D0000E94930310925D0310925C031092310306
:1009E000DF91CF911F910F91FF90EF90DF90CF900B
:1009F00008959D9191938F5F75CF85EEB0CF8091D3
:100A00002D0390912E03A0912F03B0913003892BD9
:100A10008A2B8B2B09F4A9CF0E94F60200912D039B
:100A200010912E0320912F03309130036C197D0912
:100A30008E099F09061717072807390708F095CF71
:100A4000C5CF90E080E008950F931F93CF938C0162
:100A5000C62F0E943A046C2F6460C8010E943A04B9
:100A60006C2F6B7FC8010E943A0483EC90E00197E1
:100A7000F1F7CF911F910F9108950F931F93CF938B
:100A8000DF938C01D62FC42F607F642B0E94240536
:100A900080E1D89FB00111246C2BC801DF91CF9168
:100AA0001F910F910C942405CF93DF93CDB7DEB740
:100AB00028970FB6F894DEBF0FBECDBF98E0EEE2E8
:100AC000F1E0DE01119601900D929A95E1F7909177
:100AD000A404961708F46FEF262F30E0220F331F7F
:100AE00041E050E04C0F5D1F240F351FF90160817C
:100AF000680F606840E08CE994E028960FB6F8949F
:100B0000DEBF0FBECDBFDF91CF910C943D0540E01D
:100B100061E08CE994E00E943D058BE39FE1019741
:100B2000F1F78091A504882321F060E080E00C9427
:100B30005405089541E00E943D0581E090E008954C
:100B4000FC0101900020E9F73197AF01481B590BD8
:100B5000BC018CE994E00C942201CF93DF93EC016B
:100B60008091A9049091AA04009759F02091AB04B8
:100B70003091AC042C173D0720F081E0DF91CF913C
:100B80000895BE016F5F7F4F0E946A0F009789F042
:100B90009093AA048093A904D093AC04C093AB04AF
:100BA0002091AD043091AE04232B39F7FC01108263
:100BB000E4CF80E0E3CF0F931F93CF93DF9300D078
:100BC000CDB7DEB789831A820091AD041091AE04CF
:100BD0000F5F1F4FC8010E94AD058823A1F020912F
:100BE000A9043091AA048091AD049091AE04BE0195
:100BF0006F5F7F4F820F931F0E9430101093AE04DF
:100C00000093AD0481E00F900F90DF91CF911F9181
:100C10000F910895CF93DF93EC010E94AD052091D1
:100C2000A9043091AA04811117C02115310519F0CA
:100C3000C9010E94E10E1092AA041092A904109218
:100C4000AE041092AD041092AC041092AB0489EA89
:100C500094E0DF91CF910895D093AE04C093AD049A
:100C600069E771E0C9010E943010F1CF85ED8093F2
:100C7000BC0080912D0390912E03A0912F03B09181
:100C800030030796A11DB11D23E0B695A795979552
:100C900087952A95D1F72091BC0024FD03C01092BE
:100CA0002B03089540912D0350912E0360912F0343
:100CB00070913003452B462B472B69F30097A10514
:100CC000B10541F025E32A95F1F700000197A1094C
:100CD000B109E1CF80912C030C9493031F920F92E2
:100CE0000FB60F9211242F933F934F935F936F93FF
:100CF0007F938F939F93AF93BF93EF93FF938DE673
:100D000093E00E94A001FF91EF91BF91AF919F915D
:100D10008F917F916F915F914F913F912F910F90A4
:100D20000FBE0F901F9018951F920F920FB60F9243
:100D300011242F938F939F93EF93FF93E0917D0363
:100D4000F0917E038081E0918303F091840382FD22
:100D50001BC09081809186038F5F8F7320918703E2
:100D6000821741F0E0918603F0E0E359FC4F958F44
:100D700080938603FF91EF919F918F912F910F9018
:100D80000FBE0F901F9018958081F4CF1F920F9285
:100D90000FB60F9211242F933F938F939F93AF938E
:100DA000BF938091690390916A03A0916B03B09106
:100DB0006C033091530323E0230F2D3758F5019630
:100DC000A11DB11D209353038093690390936A037F
:100DD000A0936B03B0936C038091540390915503DF
:100DE000A0915603B09157030196A11DB11D8093A8
:100DF000540390935503A0935603B0935703BF91A8
:100E0000AF919F918F913F912F910F900FBE0F90B7
:100E10001F90189526E8230F0296A11DB11DD2CF71
:100E20001F920F920FB60F9211242F933F934F935F
:100E30005F936F937F938F939F93AF93BF93EF9342
:100E4000FF938091B900887F803609F44AC0F0F59D
:100E5000883209F4A7C018F5803109F49BC0B8F4B2
:100E6000882309F4F9C0883009F494C0FF91EF9108
:100E7000BF91AF919F918F917F916F915F914F91B2
:100E80003F912F910F900FBE0F901F9018958831B2
:100E900009F488C0803251F78093290314C080344C
:100EA00009F49DC040F48033B9F38833F9F6809398
:100EB000290385ECB0C0803509F485C0883509F474
:100EC00096C0883499F60E943606D0CF883909F446
:100ED0008CC038F5883729F050F4883611F0803707
:100EE00029F683E080932B031092040357C08838BF
:100EF00009F47BC0803919F0803809F0B7CF8091B0
:100F00000403803208F071C0E091040381E08E0F89
:100F1000809304038091BB00F0E0EC51FD4F80838F
:100F20003DC0803B39F0E0F4803A09F479C0883A5A
:100F300009F09CCF84E080932B031092E30210927F
:100F4000E202E0915A03F0915B0309958091E2027D
:100F500081110FC081E08093E2021092C20209C0A9
:100F6000803C09F4A6CF883C09F4A3CF883B09F064
:100F70007DCFE091E30281E08E0F8093E302F0E009
:100F8000EE53FD4F80818093BB009091E3028091EE
:100F9000E20229C0809106038093BB0085EC809318
:100FA000BC0064CF9091280380912703981758F5CF
:100FB000E091280381E08E0F80932803F0E0E95F41
:100FC000FC4F8081E9CFE091280381E08E0F809370
:100FD00028038091BB00F0E0E95FFC4F8083909193
:100FE0002803809127039817C8F285E8D8CFE091AD
:100FF000280381E08E0F809328038091BB00F0E0EE
:10100000E95FFC4F808380912A0381115CCF81E0EE
:101010008093050384EA8093BC0010922B0326CFB3
:1010200085EC8093BC0010922B03809104038032E6
:1010300030F4E0910403F0E0EC51FD4F1082609138
:10104000040370E0E0915803F091590384EE92E0BC
:101050000995109204030ACF1092290334CF1F92EE
:101060000F920FB60F9211242F933F938F939F935C
:10107000EF93FF9380917A00806480937A0080914F
:101080007A00319B14C080910A0190910B01019666
:1010900090930B0180930A01FF91EF919F918F91A3
:1010A0003F912F910F900FBE0F901F901895809138
:1010B00008019091090190930701809306018091A6
:1010C00078009091790090930901809308018091B4
:1010D0006603882309F4A8C0809106019091070156
:1010E0002091080130910901821B930B18161906F3
:1010F0000CF07DC0809106019091070120910801BC
:1011000030910901821B930BC3970CF479C0809135
:101110009E0290919F02926090939F0280939E0204
:1011200080919E0290919F029695879590939F0241
:1011300080939E028091A00291E089278093A00273
:101140008091660381119EC087E090E020910A01A2
:1011500030910B012817390709F09ECF8091660363
:10116000882309F492C0809165039091A002892799
:101170001092A00220919E0230919F0230939D0216
:1011800020939C0210929F0210929E02882361F18C
:1011900080919A0290919B0201968F739927909368
:1011A000990280939802209198023091990280913F
:1011B00096029091970228173907B1F0E0919A02B0
:1011C000F0919B0280919C0290919D02EE0FFF1F77
:1011D000EA5EFD4F918380838091980290919902FD
:1011E00090939B0280939A028FEF9FEF51CF809153
:1011F000080190910901209106013091070182CFE9
:1012000080919E0290919F02917090939F02809393
:101210009E0280919E0290919F0296958795909351
:101220009F0280939E028CCF8091060190910701CE
:101230002091080130910901821B930B18161906A1
:1012400094F480910601909107012091080130915A
:101250000901821B930BC3977CF080919E029091B1
:101260009F029160D2CF8091080190910901209155
:10127000060130910701EDCF80919E0290919F026F
:101280009927C3CF88E090E061CF81E073CF1092BF
:10129000700310926F0388EE93E0A0E0B0E08093BB
:1012A000710390937203A0937303B09374032AE3C2
:1012B00031E030936E0320936D0325EC30E03093E2
:1012C0007A032093790324EC30E030937C0320935D
:1012D0007B0320EC30E030937E0320937D0321ECF0
:1012E00030E03093800320937F0322EC30E0309392
:1012F00082032093810326EC30E030938403209313
:101300008303109286031092870310928803109231
:10131000890310920D0410920C0480930E04909394
:101320000F04A0931004B09311048CE491E0909307
:101330000B0480930A041092AA041092A90410923C
:10134000AC041092AB041092AE041092AD0490E085
:1013500080E00E940A0610929F0410929E0488E684
:1013600091E090939D0480939C041092A50487E2E1
:101370008093A00480E18093A60482E08093A70478
:101380001092A80428E630E030931A042093190440
:10139000109218041092170410921604249A90E4E4
:1013A00090937C0010927B0096E890937A00909145
:1013B0007A00906490937A0090917A0039988093A3
:1013C000680080936C0010921D041092210410920A
:1013D0002004109222048EE591E090931C048093E7
:1013E0001B04E7E3F4E01082148213821582369620
:1013F00084E0E337F807B9F784E191E090937E0445
:1014000080937D0480E191E09093800480937F0439
:1014100084E0809381048093820488E191E090933A
:101420007C0480937B048AE090E090938404809312
:10143000830484EF91E09093860480938504109256
:101440008904109288041092770410927804109204
:10145000790410927A04109287040895789484B5E0
:10146000826084BD84B5816084BD85B5826085BDA0
:1014700085B5816085BD80916E00816080936E002E
:101480001092810080918100826080938100809120
:1014900081008160809381008091800081608093D1
:1014A00080008091B10084608093B1008091B00091
:1014B00081608093B00080917A00846080937A008C
:1014C00080917A00826080937A0080917A008160B6
:1014D00080937A0080917A00806880937A001092DD
:1014E000C100E0917D03F0917E0382E08083E09172
:1014F0007903F0917A031082E0917B03F0917C03F1
:1015000080E1808310928503E0918103F091820352
:1015100086E08083E0917F03F09180038081806189
:101520008083E0917F03F0918003808188608083D5
:10153000E0917F03F0918003808180688083E09157
:101540007F03F091800380818F7D80832298239A8E
:101550002B9A88E690E0909364038093630381E084
:10156000809366038093650310925F0310925E037D
:1015700010925D0310925C030E94750380E291E07B
:1015800090935B0380935A0381E291E09093590317
:10159000809358031092A1048091A704823018F020
:1015A00098E09093A1048093A40462E370E080E04B
:1015B00090E00E941B036091A8048CE994E00E94D3
:1015C0003A0468EE73E080E090E00E941B0360E361
:1015D0008CE994E00E942405CBE4D6E4CE01019787
:1015E000F1F760E38CE994E00E9424052197F1F77C
:1015F00060E38CE994E00E94240583E592E0019782
:10160000F1F760E28CE994E00E9424056091A10466
:10161000606240E08CE994E00E943D0584E08093A4
:10162000A20440E06CE08CE994E00E943D050E9439
:10163000870582E08093A30440E066E08CE994E0B3
:101640000E943D0540E062E08CE994E00E943D0587
:101650008BE39FE10197F1F760E080E00E94540581
:1016600080E791E00E94A00561E080E00E945405BF
:1016700088E08093A80460E08CE994E00E943A043A
:101680006091A204862F81608093A204696040E08B
:101690008CE994E00E943D05C12CD12C7601C394C5
:1016A00066246A94762C37E5432E34E0532E81E08D
:1016B000809387048FB7F8944091690350916A032F
:1016C00060916B0370916C038FBF80917704909150
:1016D0007804A0917904B0917A04481B590B6A0BE5
:1016E0007B0B8091830490918404B0E0A0E0841788
:1016F0009507A607B70708F0ABC1C0E08091810449
:10170000C81760F4E0917D04F0917E04EC0FF11DA8
:1017100062E080810E94B602CF5FF0CF312C8091D1
:101720008204381608F05FC0032D10E0E0917F04BA
:10173000F0918004E00FF11F61E080810E94B60209
:10174000E0917F04F0918004E00FF11F60E0808160
:101750000E948402D701C601032C04C0880F991F80
:10176000AA1FBB1F0A94D2F74C015C01A094B0944D
:10177000212C809181042816F8F4C22DD0E0E0914C
:101780007D04F0917E04EC0FFD1F80810E945802C1
:101790002496CC0FDD1FC55EDB4F892B41F4888179
:1017A000998188299929998388832394E2CF888114
:1017B00099818A219B21F7CFE0917F04F0918004E9
:1017C000E00FF11F61E080810E94840280917F041C
:1017D00090918004080F191F60E0F80180810E9439
:1017E000B60233949CCF0BE114E0E8018F8D98A1F1
:1017F000892B21F41C8E7E8E6D8E19A226964C1696
:101800005D06A1F7912C96E0392E809181049816FF
:1018100008F052C0812CA92CB12CAA0CBB1CC5010C
:101820008D5D9B4F5C0120918204821608F042C0BE
:10183000F50160817181082C02C0769567950A9444
:10184000E2F7929E90011124280D311DEBE1F4E0A6
:1018500080E0458D568D2417350709F4CEC18F5F82
:1018600036968A30B1F760FF23C0EBE1F4E090E0F8
:1018700080E0448D411117C0E0917B04F0917C041D
:10188000E20FF31F4081389EF001399EF00D1124C4
:10189000E55EFB4F448F368F258F10A2178E61E0D7
:1018A0000E94B00005C0019636968A30910509F76E
:1018B0008394B9CF9394A9CF80E0F80191A19111BD
:1018C000892F0A5F1F4FC017D107B9F79FB7F89448
:1018D0004091690350916A0360916B0370916C03AE
:1018E0009FBF40937704509378046093790470937A
:1018F0007A04882309F4ACC080913C04882309F45D
:10190000A7C080913A0490913B04019709F0A0C0D0
:10191000C0913704C0936103C111A0C080916203DC
:10192000882351F110926203C33209F09BC01092D8
:10193000600390E080E00E940A060E94870560E054
:1019400080E00E9454058AE791E00E94A0056CE2C5
:1019500071E080E090E00E941B030E94870560E038
:1019600080E00E94540580E791E00E94A00561E0BC
:10197000809160030E94540590906803992009F4B7
:101980002FC110926803D0E0C0E08091AD04909127
:10199000AE04C817D90708F01FC1E091A904F0915F
:1019A000AA04309709F0B5C010926703E7E6F3E0A8
:1019B00060818DE693E00E94C2018091AD04909118
:1019C000AE04C817D90738F4E091A904F091AA042D
:1019D000309709F0A1C010926703E7E6F3E0208199
:1019E00030E080910E0190910F010AE8A02E04E0F2
:1019F000B02ED501892CF0E0E0E061E070E050E02D
:101A000040E08901062317236017710789F48230AB
:101A1000910509F484C0009719F0882009F47FC06B
:101A20000196892C4830510509F47FC011E0F12757
:101A30004730510509F079C010916503112309F46D
:101A400071C0E11511E0F10709F06FC031606DC0A0
:101A50001092870410926103C0E060CF81E0809310
:101A600062035CCFCA32B9F480910D01803211F06B
:101A70000E94DB0581E0809368031092600381E49B
:101A800080930C010E94870560E080E00E9454056D
:101A900083E891E05ACFD0916003C13491F4609112
:101AA0000C0181E06E37A8F080E280930C01609316
:101AB0000D0141E08CE994E00E943D0561E08D2F2D
:101AC00059CFC23441F460910C018EE7613268F362
:101AD0008FEF860FEACFC33479F481E08D0F8093C6
:101AE000600361E00E94540580910D010E94DB05B6
:101AF00080E280930D0140CF41E06C2F8CE994E0AF
:101B00000E943D0561E08D2F0E945405C0930D0198
:101B100033CFEC0FFD1F4CCFEC0FFD1F60CF0197B3
:101B2000812C80CF309709F491CF8D939D93660FD0
:101B3000771F4F5F5F4F4930510509F062CF909397
:101B40000F0180930E0130E020E08091660388232E
:101B5000B1F189E090E0281739070CF03BC0F5019E
:101B6000819191915F018130910561F18230910500
:101B700069F1892B19F42398229A2A982C9A80913A
:101B80006303909164038230910538F0880F991FA8
:101B9000880F991F05970197F1F72C98809163039F
:101BA000909164038230910538F0880F991F880F57
:101BB000991F05970197F1F72F5F3F4FC6CF88E038
:101BC00090E0C9CF2298239A2B9AD8CF2398229AB3
:101BD0002A9AD4CF2196D9CE90E080E00E940A06BE
:101BE00080E090E0892B09F462CD0E948C0188236B
:101BF00009F459CD0E94000056CD617051CE8091FC
:101C0000A9049091AA04009711F00C94E10E089594
:101C10002F923F924F925F926F927F928F929F92FC
:101C2000AF92BF92CF92DF92EF92FF920F931F93EA
:101C3000CF93DF93CDB7DEB7CA1BDB0B0FB6F8949B
:101C4000DEBF0FBECDBF09942A88398848885F84DB
:101C50006E847D848C849B84AA84B984C884DF804C
:101C6000EE80FD800C811B81AA81B981CE0FD11D30
:101C70000FB6F894DEBF0FBECDBFED010895EE0F95
:101C8000FF1F0590F491E02D09940F931F93CF93BC
:101C9000DF938230910510F482E090E0E091B1048E
:101CA000F091B20430E020E0B0E0A0E0309799F489
:101CB0002115310509F44AC0281B390B24303105A0
:101CC000D8F58A819B816115710589F1FB019383A8
:101CD0008283FE0111C04081518102811381481726
:101CE0005907E0F04817590799F4109761F01296D8
:101CF0000C93129713961C933296CF01DF91CF91DC
:101D00001F910F9108950093B1041093B204F4CF82
:101D10002115310551F04217530738F0A901DB01B5
:101D20009A01BD01DF01F801C1CFEF01F9CF909316
:101D3000B2048093B104CDCFFE01E20FF31F819373
:101D400091932250310939832883D7CF2091AF0452
:101D50003091B004232B41F420912A0130912B01C2
:101D60003093B0042093AF042091280130912901D1
:101D70002115310541F42DB73EB740912C0150910A
:101D80002D01241B350BE091AF04F091B004E21754
:101D9000F307A0F42E1B3F0B2817390778F0AC018E
:101DA0004E5F5F4F2417350748F04E0F5F1F50936B
:101DB000B0044093AF04819391939FCFF0E0E0E0B3
:101DC0009CCFCF93DF930097E9F0FC013297138209
:101DD0001282A091B104B091B204ED0130E020E094
:101DE0001097A1F420813181820F931F2091AF04BD
:101DF0003091B0042817390709F061C0F093B0049E
:101E0000E093AF04DF91CF910895EA01CE17DF0789
:101E1000E8F54A815B819E0141155105B1F7E90161
:101E2000FB83EA8349915991C40FD51FEC17FD0735
:101E300061F4808191810296840F951FE901998355
:101E40008883828193819B838A83F0E0E0E012960D
:101E50008D919C9113970097B9F52D913C91119715
:101E6000CD010296820F931F2091AF043091B004F0
:101E70002817390739F6309751F51092B2041092AD
:101E8000B104B093B004A093AF04BCCFD383C2839A
:101E900040815181840F951FC817D90761F44E5FA7
:101EA0005F4F88819981480F591F518340838A81F0
:101EB0009B81938382832115310509F0B0CFF09384
:101EC000B204E093B1049ECFFD01DC01C0CF1382C8
:101ED0001282D7CFB0E0A0E0E0E7FFE00C940A0E5A
:101EE0008C01009751F4CB010E94450E8C01C80172
:101EF000CDB7DEB7E0E10C94260EFC01E60FF71F2C
:101F00009C0122503109E217F30708F49DC0D90162
:101F1000CD91DC911197C617D70798F0C530D10540
:101F200030F3CE0104978617970708F3C61BD70B2B
:101F30002297C193D1936D937C93CF010E94E10EC0
:101F4000D6CF5B01AC1ABD0A4C018C0E9D1EA09130
:101F5000B104B091B204512C412CF12CE12C10971A
:101F600031F58091AF049091B0048815990509F07E
:101F70005CC04616570608F058C080912801909121
:101F80002901009741F48DB79EB740912C015091E3
:101F90002D01841B950BE817F90708F055C0F09345
:101FA000B004E093AF04F90171836083A0CF8D91F9
:101FB0009C91119712966C90129713967C901397A0
:101FC000A815B90559F56C0142E0C40ED11CCA141C
:101FD000DB0420F1AC014A195B09DA01129615976E
:101FE00080F06282738251834083D9016D937C9328
:101FF000E114F10471F0D7011396FC93EE9312975C
:1020000076CF22968C0F9D1FF90191838083F30177
:10201000EFCFF093B204E093B10469CF48165906AC
:1020200008F42C017D01D3019ACFCB010E94450E0B
:102030007C01009749F0AE01B8010E942710C80149
:102040000E94E10E870153CF10E000E050CFFB016A
:10205000DC0102C001900D9241505040D8F7089524
:10206000FB01DC0101900D920020E1F7089510E0E2
:10207000C2E6D0E004C0FE010E943F0E2196C336A6
:10208000D107C9F7F894FFCFFFFF0002000200025A
:102090000002FFFF412001000504030209080706B2
:1020A0003132334134353642373839432A302344CC
:1020B0000000B30480000000400014005400000041
:1020C0000000C20122014F010F0280015E01720176
:1020D000000000000B04DE032105B403D703C40392
:1020E000B50300000000F202B2028102000000000D
:1020F0009A05220121054D034D6573736167653AA9
:102100002000426F7272616E646F00456E76696185
:042110006E646F008A
:107E0000112484B714BE81FFF0D085E080938100F7
:107E100082E08093C00088E18093C10086E0809377
:107E2000C20080E18093C4008EE0C9D0259A86E02C
:107E300020E33CEF91E0309385002093840096BBD3
:107E4000B09BFECF1D9AA8958150A9F7CC24DD24C4
:107E500088248394B5E0AB2EA1E19A2EF3E0BF2EE7
:107E6000A2D0813461F49FD0082FAFD0023811F036
:107E7000013811F484E001C083E08DD089C08234E0
:107E800011F484E103C0853419F485E0A6D080C0E4
:107E9000853579F488D0E82EFF2485D0082F10E0AE
:107EA000102F00270E291F29000F111F8ED06801E7
:107EB0006FC0863521F484E090D080E0DECF843638
:107EC00009F040C070D06FD0082F6DD080E0C81688
:107ED00080E7D80618F4F601B7BEE895C0E0D1E017
:107EE00062D089930C17E1F7F0E0CF16F0E7DF06D8
:107EF00018F0F601B7BEE89568D007B600FCFDCFD4
:107F0000A601A0E0B1E02C9130E011968C91119780
:107F100090E0982F8827822B932B1296FA010C0160
:107F200087BEE89511244E5F5F4FF1E0A038BF0790
:107F300051F7F601A7BEE89507B600FCFDCF97BE46
:107F4000E89526C08437B1F42ED02DD0F82E2BD052
:107F50003CD0F601EF2C8F010F5F1F4F84911BD097
:107F6000EA94F801C1F70894C11CD11CFA94CF0C13
:107F7000D11C0EC0853739F428D08EE10CD085E9AC
:107F80000AD08FE07ACF813511F488E018D01DD067
:107F900080E101D065CF982F8091C00085FFFCCF94
:107FA0009093C60008958091C00087FFFCCF809118
:107FB000C00084FD01C0A8958091C6000895E0E648
:107FC000F0E098E1908380830895EDDF803219F02E
:107FD00088E0F5DFFFCF84E1DECF1F93182FE3DFCA
:107FE0001150E9F7F2DF1F91089580E0E8DFEE27F6
:047FF000FF270994CA
:027FFE00040479
:00000001FF
